S01800004763634170706C69636174696F6E31302E737265632A
S11300000C943E000C9453000C9453000C94530035
S11300100C9453000C9453000C9453000C94530010
S11300200C9453000C9453000C9453000C94530000
S11300300C9453000C9453000C9453000C945300F0
S11300400C9453000C9453000C9453000C945300E0
S11300500C9453000C9453000C9453000C945300D0
S11300600C9453000C9453000C9453000C945300C0
S11300700C9453000C9453000C94530011241FBE91
S1130080CFEFD8E0DEBFCDBF11E0A0E0B1E0E8E6FD
S1130090F7E002C005900D92A835B107D9F70E9488
S11300A01D010C94B2030C94000080FF02C05C9A02
S11300B001C05C9881FF02C05D9A01C05D9882FF17
S11300C002C05E9A01C05E9883FF02C05F9A0895E1
S11300D05F98089546980E945500479A8FE99FE0DB
S11300E00197F1F700C0000047988FE99FE001975E
S11300F0F1F700C00000089580E00E946A0081E0EA
S11301000E946A000895CF93C62F813059F480E885
S1130110860F82958F700E946A008C2F8F700E94C8
S11301206A000CC0823051F480EC860F82958F7087
S11301300E946A008C2F8F700E946A00CF910895EC
S113014080E00E9455002FEF89EF90E0215080401D
S11301509040E1F700C0000083E00E946A008FE154
S11301609EE40197F1F700C0000083E00E946A005A
S11301708FED9BEA0197F1F700C0000083E00E9435
S11301806A0082E00E946A0082E00E946A0088E0BD
S11301900E946A0080E00E946A008CE00E946A006B
S11301A080E00E946A0086E00E946A000895CF936E
S11301B0C82F469A82958F700E945500479A8FE9FE
S11301C09FE00197F1F700C0000047988FE99FE096
S11301D00197F1F700C000008C2F8F700E9455002A
S11301E0479A8FE99FE00197F1F700C00000479814
S11301F08FE99FE00197F1F700C00000CF910895C7
S1130200CF93DF93EC018881882331F021960E94FB
S1130210D70089918111FBCFDF91CF91089581E0BF
S11302200E946A008CE00E946A00089581E00E94A6
S11302306A0088E00E946A000895CF93DF9300D09B
S113024000D01F92CDB7DEB78FEF8AB987B90E946D
S1130250A0000E947C0062E081E00E94830084E0B0
S113026091E00E94000160E082E00E94830081E14D
S113027091E00E94000166E082E00E94830084E134
S113028091E00E9400016CE082E00E94830087E11B
S113029091E00E940001AA24AA94B12C0E940A03AE
S11302A0B5010E949602E82EF92E082F192F62E05C
S11302B082E00E9483000436110544F48AE191E04F
S11302C00E94000163E082E00E9483004AE0BE01D4
S11302D06F5F7F4F8E2D9F2D0E941A030E94000195
S11302E00E940A03B5010E949602C82ED92EE82E58
S11302F0F92E68E082E00E94830024E6E216F1040D
S113030044F48AE191E00E94000169E082E00E94E5
S113031083004AE0BE016F5F7F4F8C2D9D2D0E94AC
S11303201A030E9400010E940A03B5010E9496026A
S1130330882E992EC82ED92E6EE082E00E9483006A
S113034084E6C816D10444F48AE191E00E940001D5
S11303506FE082E00E9483004AE0BE016F5F7F4F3E
S1130360882D992D0E941A030E94000162E081E009
S11303700E9483008CE191E00E9400010038110585
S11303800CF0C0C090E8E916F1046CF420E8C21641
S1130390D1044CF466E081E00E94830089E291E09C
S11303A00E94000185C00138110514F181E8E816A6
S11303B0F1046CF091E8C916D1044CF066E081E0D8
S11303C00E9483008FE291E00E94000171C020E846
S11303D0E216F1046CF480E8C816D1044CF466E02B
S11303E081E00E94830085E391E00E94000160C0E7
S11303F00038110514F591E8E916F1046CF020E8D1
S1130400C216D1044CF466E081E00E94830089E3C3
S113041091E00E9400014CC080E8E816F1046CF4FD
S113042091E8C916D1044CF066E081E00E94830093
S11304308FE391E00E9400013BC0013811050CF4E8
S11304406BC021E8E216F1040CF461C080E8C81620
S1130450D1040CF053C066E081E00E94830084E480
S113046091E00E94000124C091E8E916F1046CF0C7
S113047021E8C216D1044CF066E081E00E948300BA
S11304808BE491E00E94000113C00138110584F04F
S113049080E8E816F10464F491E8C916D10444F044
S11304A066E081E00E94830080E591E00E94000103
S11304B02FEF80E792E0215080409040E1F700C0A8
S11304C000000E9416012FEF81EE94E0215080403D
S11304D09040E1F700C000008FE39CE90197F1F739
S11304E000C000000E940F019FEF21EE84E09150B4
S11304F020408040E1F700C00000D0CE0038110554
S11305007CF0C6CF013811050CF050CF96CF0038DF
S113051011050CF4BDCFB9CF003811054CF6A4CFAA
S113052091E8C916D1040CF4B3CFA6CF97FB072EDC
S113053016F4009407D077FD09D00E94AA0207FCA4
S113054005D03EF4909581959F4F089570956195DF
S11305507F4F0895AA1BBB1B51E107C0AA1FBB1FF5
S1130560A617B70710F0A61BB70B881F991F5A953B
S1130570A9F780959095BC01CD0108958F929F9223
S1130580AF92BF92CF92DF92EF92FF92CF93DF931D
S1130590EC01688179818A819B81611571058105EE
S11305A0910521F464E279ED8BE597E02DE133EFD9
S11305B041E050E00E944F0349015A019B01AC0104
S11305C0A7EAB1E40E946E036B017C01ACEEB4EFC8
S11305D0A50194010E947C03DC01CB018C0D9D1DBF
S11305E0AE1DBF1DB7FF03C00197A109B0488883A2
S11305F09983AA83BB839F77DF91CF91FF90EF907C
S1130600DF90CF90BF90AF909F908F9008950E94FD
S1130610BE02089580E091E00E94BE020895A0E029
S1130620B0E08093000190930101A0930201B09384
S113063003010895BB274A3031F4992322F4BDE223
S1130640909581959F4F0C942603BB27FB0155275A
S1130650AA27880F991FAA1FA41710F0A41B83951B
S11306605051B9F7A05DAA3308F0A95DA193009792
S113067079F7B111B1931192CB010C943F03DC01D2
S1130680FC01672F71917723E1F7329704C07C91C5
S11306906D9370836291AE17BF07C8F30895052E5A
S11306A097FB1EF400940E94660357FD07D00E9436
S11306B0810307FC03D04EF40C94660350954095D7
S11306C0309521953F4F4F4F5F4F089590958095FA
S11306D0709561957F4F8F4F9F4F08950E94A3039C
S11306E0A59F900DB49F900DA49F800D911D112482
S11306F00895B7FF0C946E030E946E03821B930B44
S11307000895A1E21A2EAA1BBB1BFD010DC0AA1F4E
S1130710BB1FEE1FFF1FA217B307E407F50720F066
S1130720A21BB30BE40BF50B661F771F881F991FE1
S11307301A9469F760957095809590959B01AC012A
S1130740BD01CF010895A29FB001B39FC001A39F33
S1130750700D811D1124911DB29F700D811D1124F6
S10B0760911D0895F894FFCFE8
S113076801000000434F4C4F522053454E534F5203
S113077800523A00473A00423A0030002020202034
S1130788202020202020202000424C41434B0057A9
S1130798484954450052454400475245454E004295
S11307A84C55450059454C4C4F57004359414E0050
S10B07B84D4147454E54410038
S9030000FC
