:100000000C94FF000C941C010C941C010C941C011A
:100010000C941C010C941C010C941C010C941C01EC
:100020000C941C010C941C010C941C010C941C01DC
:100030000C941C010C941C010C941C010C941C01CC
:100040000C941C010C941C010C941C010C941C01BC
:100050000C941C010C941C010C941C010C941C01AC
:100060000C941C010C941C010C941C010C941C019C
:100070000C941C010C941C010C941C01FC0109043F
:100080000904090409040904090409041102090402
:1000900009040904090409040904090426020904DD
:1000A0000904090409040904090409043B020904B8
:1000B0000904090409040904090409045002090493
:1000C000090409040904090409040904650209046E
:1000D0000904090409040904090409047A02090449
:1000E0000904090409040904090409048F02090424
:1000F000090409040904090409040904A4020904FF
:10010000090409040904090409040904B9020904D9
:10011000090409040904090409040904CE020904B4
:100120000904090409040904090409044C03090425
:100130000904090409040904090409046103090400
:1001400009040904090409040904090476030904DB
:100150000904090409040904090409048B030904B6
:10016000090409040904090409040904A003090491
:10017000090409040904090409040904B50309046C
:10018000090409040904090409040904CA03090447
:10019000090409040904090409040904DF03090422
:1001A000090409040904090409040904F4030904FD
:1001B000090409040904090409040904E3020904FF
:1001C000090409040904090409040904F8020904DA
:1001D0000904090409040904090409040D030904B4
:1001E000090409040904090409040904220309048F
:1001F0000904090409040904090409043703112442
:100200001FBECFEFD8E0DEBFCDBF15E0A0E0B1E06C
:10021000E8E6FFE002C005900D92A43BB107D9F7D4
:1002200026E0A4EBB5E001C01D92A931B207E1F7C9
:100230000E9494040C94B2070C94000080FF02C04A
:100240005C9A01C05C9881FF02C05D9A01C05D9814
:1002500082FF02C05E9A01C05E9883FF02C05F9A6F
:1002600008955F98089546980E941E01479A8FE965
:100270009FE00197F1F700C0000047988FE99FE0E9
:100280000197F1F700C00000089580E00E9433015B
:1002900081E00E9433010895CF93C62F813059F435
:1002A00080E8860F82958F700E9433018C2F8F70AB
:1002B0000E9433010CC0823051F480EC860F82958D
:1002C0008F700E9433018C2F8F700E943301CF9169
:1002D000089580E00E941E012FEF89EF90E02150E9
:1002E00080409040E1F700C0000083E00E943301AD
:1002F0008FE19EE40197F1F700C0000083E00E94C7
:1003000033018FED9BEA0197F1F700C0000083E015
:100310000E94330182E00E94330182E00E94330197
:1003200088E00E94330180E00E9433018CE00E944B
:10033000330180E00E94330186E00E94330108957A
:10034000CF93C82F469A82958F700E941E01479ABC
:100350008FE99FE00197F1F700C0000047988FE90F
:100360009FE00197F1F700C000008C2F8F700E9472
:100370001E01479A8FE99FE00197F1F700C0000046
:1003800047988FE99FE00197F1F700C00000CF91F7
:100390000895CF93DF93EC018881882331F0219673
:1003A0000E94A00189918111FBCFDF91CF91089527
:1003B00087B1836087B91092B90088E08093B80054
:1003C0000895ECEBF0E090819923ECF72091B900CF
:1003D000482F50E0287F30E02417350709F431C258
:1003E000482F50E0FA013897E13CF10508F011C2BE
:1003F000E25CFF4F0C94C2048091B9001F928F936E
:1004000080E091E09F938F9385EB95E09F938F938E
:100410000E94C8040F900F900F900F900F900F90B4
:1004200008958091B9001F928F938EE291E09F937F
:100430008F9385EB95E09F938F930E94C8040F9054
:100440000F900F900F900F900F9008958091B9002A
:100450001F928F938CE591E09F938F9385EB95E0AE
:100460009F938F930E94C8040F900F900F900F904E
:100470000F900F9008958091B9001F928F938BE891
:1004800091E09F938F9385EB95E09F938F930E94CC
:10049000C8040F900F900F900F900F900F90089539
:1004A0008091B9001F928F9387EB91E09F938F9378
:1004B00085EB95E09F938F930E94C8040F900F9057
:1004C0000F900F900F900F9008958091B9001F9298
:1004D0008F9383EE91E09F938F9385EB95E09F93AD
:1004E0008F930E94C8040F900F900F900F900F9061
:1004F0000F9008958091B9001F928F9380E192E050
:100500009F938F9385EB95E09F938F930E94C804F0
:100510000F900F900F900F900F900F900895809173
:10052000B9001F928F938EE392E09F938F9385EB98
:1005300095E09F938F930E94C8040F900F900F90A7
:100540000F900F900F9008958091B9001F928F9394
:100550008DE692E09F938F9385EB95E09F938F9329
:100560000E94C8040F900F900F900F900F900F9063
:1005700008958091B9001F928F9389E992E09F932B
:100580008F9385EB95E09F938F930E94C8040F9003
:100590000F900F900F900F900F9008958091B900D9
:1005A0001F928F9385EC92E09F938F9385EB95E05C
:1005B0009F938F930E94C8040F900F900F900F90FD
:1005C0000F900F9008958091B9001F928F9382EF42
:1005D00092E09F938F9385EB95E09F938F930E947A
:1005E000C8040F900F900F900F900F900F900895E8
:1005F0008091B9001F928F9381E293E09F938F9334
:1006000085EB95E09F938F930E94C8040F900F9005
:100610000F900F900F900F9008958091B9001F9246
:100620008F9383E593E09F938F9385EB95E09F9362
:100630008F930E94C8040F900F900F900F900F900F
:100640000F9008958091B9001F928F938FE793E0E8
:100650009F938F9385EB95E09F938F930E94C8049F
:100660000F900F900F900F900F900F900895809122
:10067000B9001F928F938CEA93E09F938F9385EB41
:1006800095E09F938F930E94C8040F900F900F9056
:100690000F900F900F9008958091B9001F928F9343
:1006A00089ED93E09F938F9385EB95E09F938F93D4
:1006B0000E94C8040F900F900F900F900F900F9012
:1006C00008958091B9001F928F9388E094E09F93E2
:1006D0008F9385EB95E09F938F930E94C8040F90B2
:1006E0000F900F900F900F900F9008958091B90088
:1006F0001F928F938AE394E09F938F9385EB95E00D
:100700009F938F930E94C8040F900F900F900F90AB
:100710000F900F9008958091B9001F928F9387E6F4
:1007200094E09F938F9385EB95E09F938F930E9426
:10073000C8040F900F900F900F900F900F90089596
:100740008091B9001F928F9389E994E09F938F93D2
:1007500085EB95E09F938F930E94C8040F900F90B4
:100760000F900F900F900F9008958091B9001F92F5
:100770008F9385EC94E09F938F9385EB95E09F9307
:100780008F930E94C8040F900F900F900F900F90BE
:100790000F9008958091B9001F928F9382EF94E09B
:1007A0009F938F9385EB95E09F938F930E94C8044E
:1007B0000F900F900F900F900F900F9008958091D1
:1007C000B9001F928F9383E295E09F938F9385EBFF
:1007D00095E09F938F930E94C8040F900F900F9005
:1007E0000F900F900F9008958091B9001F928F93F2
:1007F00085E595E09F938F9385EB95E09F938F938D
:100800000E94C8040F900F900F900F900F900F90C0
:1008100008959091B9001F929F931F928F9381E842
:1008200095E09F938F9385EB95E09F938F930E9424
:10083000C8048DB79EB708960FB6F8949EBF0FBE3A
:100840008DBF0895DF92EF92FF920F931F93CF9386
:10085000DF93182FD62E042FCCEBD0E084EA8883C8
:1008600088E00E94E1010F2EFBEBEF2EF12CF02D22
:10087000F701108314EC188388E10E94E101F7016D
:10088000D082188388E20E94E101F7010083188377
:1008900088E20E94E10184E98883ECEBF0E080814A
:1008A00084FDFDCFDF91CF911F910F91FF90EF90CD
:1008B000DF900895ECEBF0E024EA2083ABEBB0E0AE
:1008C0008C9394EC90836C939083208381608C93C1
:1008D000908384E880838C9194E99083908194FD47
:1008E000FDCF089543E060E889E20E94220462E0BF
:1008F00081E00E944C018FE995E00E94C9010895B2
:10090000CF93DF9366E989E20E945A04C82FD0E0B2
:10091000DC2FCC2767E989E20E945A049E01282B2C
:10092000C901DF91CF9108958FEF8AB987B90E94ED
:1009300069010E9445010E94D8010E94720460E092
:1009400082E00E944C0189EA95E00E94C90166E0BC
:1009500082E00E944C018CEA95E00E94C9016CE0A3
:1009600082E00E944C018FEA95E00E94C9010E943A
:10097000800460E082E00E944C0182EB95E00E94DE
:10098000C901F5CFEE0FFF1F0590F491E02D0994FA
:10099000AEE0B0E0EEECF4E00C9489070D891E891E
:1009A00086E08C831A8309838FEF9FE79E838D8374
:1009B000AE01475E5F4F6F89788DCE0101960E9430
:1009C000EA04EF81F885E00FF11F10822E96E4E033
:1009D0000C94A507ABE0B0E0E0EFF4E00C947B07EB
:1009E0006C017B018A01FC0117821682838181FFE1
:1009F000CCC1CE0101963C01F6019381F70193FD34
:100A0000859193FF81917F01882309F4BAC18532D2
:100A100039F493FD859193FF81917F01853229F40B
:100A2000B60190E00E94E106E7CF912C212C312CF9
:100A3000FFE1F315D8F08B3279F038F4803279F099
:100A40008332A1F4232D20611DC08D3261F08033EB
:100A500069F4232D216016C0832D8260382EE32D8A
:100A6000E4603E2E2AC0F32DF8601DC037FC2DC077
:100A700020ED280F2A3040F08E32B9F436FC81C1C7
:100A8000232D2064322E19C036FE06C08AE0989EBF
:100A9000200D1124922E11C0EAE02E9E200D11246B
:100AA000222EF32DF0623F2E08C08C3621F4832DC8
:100AB0008068382E02C0883641F4F70193FD859195
:100AC00093FF81917F018111B3CF982F9F7D955422
:100AD000933028F40C5F1F4F9FE399830DC083363A
:100AE00031F0833771F0833509F059C021C0F80126
:100AF000808189830E5F1F4F88248394912C53013A
:100B000013C02801F2E04F0E511CF801A080B18003
:100B100036FE03C0692D70E002C06FEF7FEFC501A4
:100B20000E94D6064C018201F32DFF773F2E16C09E
:100B3000280122E0420E511CF801A080B18036FE4F
:100B400003C0692D70E002C06FEF7FEFC5010E9406
:100B5000CB064C01F32DF0683F2E820133FC1BC005
:100B6000822D90E088169906B0F4B60180E290E0FC
:100B70000E94E1062A94F4CFF50137FC859137FEF7
:100B800081915F01B60190E00E94E10621102A9454
:100B900021E0821A91088114910471F7E8C084362B
:100BA00011F0893641F5F80137FE07C06081718187
:100BB000828193810C5F1F4F08C060817181072E75
:100BC000000C880B990B0E5F1F4FF32DFF763F2E05
:100BD00097FF09C090958095709561957F4F8F4FD5
:100BE0009F4FF0683F2E2AE030E0A3010E941D07CE
:100BF000882E861845C0853731F4232D2F7EB22EDE
:100C00002AE030E025C0932D997FB92E8F36C1F0B0
:100C100018F4883579F0B5C0803719F0883721F09D
:100C2000B0C0E92FE061BE2EB4FE0DC0FB2DF46014
:100C3000BF2E09C034FE0AC0292F2660B22E06C07E
:100C400028E030E005C020E130E002C020E132E0E1
:100C5000F801B7FE07C060817181828193810C5FCA
:100C60001F4F06C06081718180E090E00E5F1F4FD2
:100C7000A3010E941D07882E8618FB2DFF773F2EAB
:100C800036FE0DC0232D2E7FA22E891458F434FE7B
:100C90000BC032FC09C0832D8E7EA82E05C0B82C57
:100CA000A32C03C0B82C01C0B92CA4FE0FC0FE01B8
:100CB000E80DF11D8081803321F49A2D997EA92EB3
:100CC00009C0A2FE06C0B394B39404C08A2D8678EE
:100CD00009F0B394A3FC11C0A0FE06C0B21488F4BE
:100CE000280C922C9B180EC0B21460F4B60180E25E
:100CF00090E00E94E106B394F7CFB21418F42B18D9
:100D000002C0982C212CA4FE10C0B60180E390E014
:100D10000E94E106A2FE17C0A1FC03C088E790E094
:100D200002C088E590E0B6010CC08A2D867859F0A3
:100D3000A1FE02C08BE201C080E2A7FC8DE2B601F9
:100D400090E00E94E106891438F4B60180E390E057
:100D50000E94E1069A94F7CF8A94F301E80DF11D01
:100D60008081B60190E00E94E1068110F5CF22203B
:100D700009F442CEB60180E290E00E94E1062A9496
:100D8000F6CFF6018681978102C08FEF9FEF2B96F9
:100D9000E2E10C949707FC0105906150704001104E
:100DA000D8F7809590958E0F9F1F0895FC01615094
:100DB000704001900110D8F7809590958E0F9F1F7D
:100DC00008950F931F93CF93DF93FB01238121FDA0
:100DD00003C08FEF9FEF2CC022FF16C046815781C2
:100DE000248135814217530744F4A081B1819D01CC
:100DF0002F5F3F4F318320838C93268137812F5F74
:100E00003F4F3783268314C08B01EC01FB01008424
:100E1000F185E02D0995892BE1F6D80116968D9183
:100E20009C911797019617969C938E931697CE01D7
:100E3000DF91CF911F910F910895FA01AA272830D1
:100E400051F1203181F1E8946F936E7F6E5F7F4F97
:100E50008F4F9F4FAF4FB1E03ED0B4E03CD0670F13
:100E6000781F891F9A1FA11D680F791F8A1F911D66
:100E7000A11D6A0F711D811D911DA11D20D009F4B6
:100E800068943F912AE0269F11243019305D3193F8
:100E9000DEF6CF010895462F4770405D4193B3E0E1
:100EA0000FD0C9F7F6CF462F4F70405D4A3318F088
:100EB000495D31FD4052419302D0A9F7EACFB4E039
:100EC000A6959795879577956795BA95C9F70097F1
:100ED0006105710508959B01AC010A2E0694579592
:100EE000479537952795BA95C9F7620F731F841FE9
:100EF000951FA01D08952F923F924F925F926F927F
:100F00007F928F929F92AF92BF92CF92DF92EF9299
:100F1000FF920F931F93CF93DF93CDB7DEB7CA1B1A
:100F2000DB0B0FB6F894DEBF0FBECDBF09942A8845
:100F3000398848885F846E847D848C849B84AA84ED
:100F4000B984C884DF80EE80FD800C811B81AA817A
:100F5000B981CE0FD11D0FB6F894DEBF0FBECDBF45
:080F6000ED010895F894FFCFA4
:100F6800457870656374696E672054575F535441C0
:100F780052540909202020202020202020202062EF
:100F8800757420676F7420307825780D0A004578CD
:100F980070656374696E672054575F5245505F539C
:100FA80054415254090920202020202020627574C1
:100FB80020676F7420307825780D0A0045787065B1
:100FC8006374696E672054575F4D545F534C415F9B
:100FD80041434B09092020202020202062757420DD
:100FE800676F7420307825780D0A0045787065633E
:100FF80074696E672054575F4D545F534C415F4E80
:1010080041434B090920202062757420676F7420C2
:10101800307825780D0A00457870656374696E67C5
:101028002054575F4D545F444154415F41434B093D
:101038000920202062757420676F74203078257825
:101048000D0A00457870656374696E672054575FB0
:101058004D545F444154415F4E41434B09092020A0
:101068002062757420676F7420307825780D0A0027
:10107800457870656374696E672054575F4D542FC7
:10108800525F4152425F4C4F53540909202020625D
:10109800757420676F7420307825780D0A004578BC
:1010A80070656374696E672054575F4D525F534C87
:1010B800415F41434B0909202020202020206275F0
:1010C8007420676F7420307825780D0A0045787091
:1010D800656374696E672054575F4D525F534C4186
:1010E8005F4E41434B090920202062757420676FC9
:1010F8007420307825780D0A004578706563746926
:101108006E672054575F4D525F444154415F4143DD
:101118004B090920202062757420676F742030788D
:1011280025780D0A00457870656374696E672054E8
:10113800575F4D525F444154415F4E41434B09094B
:1011480020202062757420676F7420307825780D10
:101158000A00457870656374696E672054575F5359
:10116800545F534C415F41434B0909202020202004
:10117800202062757420676F7420307825780D0AF6
:1011880000457870656374696E672054575F5354DF
:101198005F4152425F4C4F53545F534C415F414350
:1011A8004B20202062757420676F74203078257872
:1011B8000D0A00457870656374696E672054575F3F
:1011C80053545F444154415F41434B090920202057
:1011D80062757420676F7420307825780D0A004591
:1011E8007870656374696E672054575F53545F4421
:1011F8004154415F4E41434B0909202020627574D8
:1012080020676F7420307825780D0A00457870655E
:101218006374696E672054575F53545F4C4153544D
:101228005F44415441090920202062757420676F8A
:101238007420307825780D0A0045787065637469E4
:101248006E672054575F53525F534C415F41434B85
:1012580009092020202020202062757420676F74DF
:1012680020307825780D0A00457870656374696EBA
:10127800672054575F53525F4152425F4C4F53545B
:101288005F534C415F41434B2020206275742067B7
:101298006F7420307825780D0A004578706563747E
:1012A800696E672054575F53525F4743414C4C5F08
:1012B80041434B090920202062757420676F742010
:1012C800307825780D0A00457870656374696E6713
:1012D8002054575F53525F4152425F4C4F53545F03
:1012E8004743414C4C5F41434B2062757420676F04
:1012F8007420307825780D0A004578706563746924
:101308006E672054575F53525F444154415F4143D5
:101318004B090920202062757420676F742030788B
:1013280025780D0A00457870656374696E672054E6
:10133800575F53525F444154415F4E41434B090943
:1013480020202062757420676F7420307825780D0E
:101358000A00457870656374696E672054575F5357
:10136800525F4743414C4C5F444154415F41434BBA
:101378000920202062757420676F742030782578E2
:101388000D0A00457870656374696E672054575F6D
:1013980053525F4743414C4C5F444154415F4E4177
:1013A800434B0920202062757420676F74203078C1
:1013B80025780D0A00457870656374696E67205456
:1013C800575F53525F53544F500909202020202063
:1013D800202062757420676F7420307825780D0A94
:1013E80000457870656374696E67203078257820C9
:1013F80062757420676F7420307825780D0A00496B
:1014080020456E61626C656400523A00473A0042BA
:041418003A00520044
:00000001FF
